:100000000C942A000C9447000C9447000C94470071
:100010000C944E030C949F030C94F0030C9419045D
:100020000C946A040C94BB040C940C050C945D05B0
:100030000C9447000C9428010C947A010C94510103
:100040000C9401080C9447000C9447000C94470052
:100050000C94470011241FBECFE5D8E0DEBFCDBF12
:1000600010E0A0E6B0E0E2ECF4E102C005900D92F1
:10007000AC37B107D9F710E0ACE7B0E001C01D9292
:10008000A03CB107E1F70E94210A0C945F0A0C948E
:10009000000091B5986091BD91B5987F982B91BD66
:1000A000089581B5886181BD11BC0895549A539A11
:1000B00057985698559880B5806880BD80B58068FF
:1000C00080BD80B5806880BD80B5866880BD52984F
:1000D00010BC83E389B908955D9BFECF8CB9089568
:1000E0005F9BFECF8CB190E00895FC0104C05D9B46
:1000F000FECF8CB9319680818823C9F70895AF92DD
:10010000BF92CF92DF92EF92FF920F931F93DF93F4
:10011000CF93CDB7DEB72A970FB6F894DEBF0FBEE8
:10012000CDBF7B018C0197FF17C05D9BFECF109563
:100130000095F094E094E11CF11C011D111D8DE26D
:100140008CB95E010894A11CB11C8AE0F5011192E2
:100150008A95E9F7650120C0611571058105910552
:1001600081F75D9BFECF80E3EBCFC801B7012AE0AA
:1001700030E040E050E00E94220AF60161936F01F6
:10018000C801B7012AE030E040E050E00E94220AB6
:10019000C901DA017C018D018C2D8A19E114F10469
:1001A0000105110511F7282F2150822F992787FD6E
:1001B0009095FE013196E80FF91F07C080815D9B85
:1001C000FECF805D8CB92150319727FFF7CF2A965B
:1001D0000FB6F894DEBF0FBECDBFCF91DF911F9158
:1001E0000F91FF90EF90DF90CF90BF90AF90089568
:1001F000813039F0813018F0823031F404C0579AE0
:100200000895569A0895559A0895813039F08130AD
:1002100018F0823031F404C0579808955698089524
:1002200055980895813051F0813018F0823079F47A
:100230000AC070937D0060937C00089570937F00E6
:1002400060937E000895709381006093800008950C
:100250001F920F920FB60F9211242F933F934F933B
:100260005F936F937F938F939F93AF93BF93EF931E
:10027000FF93E0917C00F0917D00309709F00995A3
:10028000FF91EF91BF91AF919F918F917F916F916E
:100290005F914F913F912F910F900FBE0F901F9044
:1002A00018951F920F920FB60F9211242F933F9320
:1002B0004F935F936F937F938F939F93AF93BF936E
:1002C000EF93FF93E0917E00F0917F00309709F06B
:1002D0000995FF91EF91BF91AF919F918F917F9180
:1002E0006F915F914F913F912F910F900FBE0F90A3
:1002F0001F9018951F920F920FB60F9211242F93F3
:100300003F934F935F936F937F938F939F93AF939D
:10031000BF93EF93FF93E0918000F09181003097BD
:1003200009F00995FF91EF91BF91AF919F918F9146
:100330007F916F915F914F913F912F910F900FBEE1
:100340000F901F90189583B7806483BF83B7886030
:1003500083BF83B78F7E83BF83B7806283BF8FB530
:100360008E7F8FBD8FB58D7F8FBD8EB5877F8EBD04
:100370008EB58F7E8EBD89B78B7F89BF8FB5806428
:100380008FBD8FB58F778FBD8FB580618FBD8FB5D6
:100390008F7D8FBD0895813039F0813018F0823023
:1003A00039F405C062BF08957DBD6CBD089564BD7C
:1003B0000895882319F0823021F402C06CBF08959B
:1003C00063BD08950895813051F0813018F0823076
:1003D00079F40AC083B7887F826083BF08958EB5A1
:1003E000887F82608EBD089585B5887F846085BDD5
:1003F0000895813019F0823001F510C03093A900C2
:100400002093A800CB01A0E0B0E08093BA009093C5
:10041000BB00A093BC00B093BD000FC03093AB00F5
:100420002093AA00CB01A0E0B0E08093AE009093AF
:10043000AF00A093B000B093B10081E00E94E3014F
:1004400008951F93182F882319F0823001F510C0EA
:100450003093A1002093A000CB01A0E0B0E08093F6
:10046000B6009093B700A093B800B093B9000FC046
:100470003093A5002093A400CB01A0E0B0E08093CE
:10048000B2009093B300A093B400B093B500812F55
:10049000BA010E94D901812F0E94E3011F910895A2
:1004A000282F8130A9F0813018F0823081F520C0EA
:1004B00050939F0040939E00CB01A0E0B0E080935A
:1004C000B6009093B700A093B800B093B9001FC0D6
:1004D0005093A7004093A600CB01A0E0B0E080932A
:1004E000BA009093BB00A093BC00B093BD000FC0B6
:1004F0005093A3004093A200CB01A0E0B0E0809312
:10050000B2009093B300A093B400B093B500822FD3
:100510000E94E3010895882319F0823041F404C059
:1005200083B7887F83BF089585B5887F85BD08958B
:10053000813049F0813028F0823041F020E030E015
:1005400008C082B704C02CB53DB503C084B5282FC0
:1005500030E0C901089526B537B5C901089588234B
:1005600019F0813041F404C08EB58F7B8EBD0895A3
:100570008EB580648EBD08958330C9F0843028F430
:10058000813079F0823080F409C08530B1F0853057
:1005900088F08630A9F08730D1F416C089B7816021
:1005A00011C089B784600EC089B780640BC089B759
:1005B000826008C089B7806805C089B7806102C0C1
:1005C00089B7886089BF089589B7806289BF089517
:1005D0008330C9F0843028F4813079F0823080F49F
:1005E00009C08530B1F0853088F08630A9F08730B9
:1005F000D1F416C089B78E7F11C089B78B7F0EC02A
:1006000089B78F7B0BC089B78D7F08C089B78F777B
:1006100005C089B78F7E02C089B7877F89BF0895DB
:1006200089B78F7D89BF08958330F9F0843028F42D
:10063000813089F08230A0F409C0853001F1853025
:10064000C8F0863009F1873041F523C070939F00D0
:1006500060939E0008957093A7006093A60008958C
:100660007093A3006093A20008957093A10060931B
:10067000A00008957093A5006093A400089570935E
:10068000A9006093A80008957093AB006093AA003E
:1006900008957093AD006093AC0008951F920F927F
:1006A0000FB60F9211242F933F934F935F936F9345
:1006B0007F938F939F93AF93BF93EF93FF9380911B
:1006C0009A0090919B00A0919C00B0919D00019692
:1006D000A11DB11D80939A0090939B00A0939C0054
:1006E000B0939D002091B2003091B3004091B400CE
:1006F0005091B50082179307A407B50779F4E091EC
:10070000A400F091A500309749F0099510929A0045
:1007100010929B0010929C0010929D00FF91EF910F
:10072000BF91AF919F918F917F916F915F914F9109
:100730003F912F910F900FBE0F901F9018951F9211
:100740000F920FB60F9211242F933F934F935F9305
:100750006F937F938F939F93AF93BF93EF93FF9389
:100760008091960090919700A0919800B091990087
:100770000196A11DB11D8093960090939700A093C0
:100780009800B09399002091B2003091B30040914D
:10079000B4005091B50082179307A407B50779F408
:1007A000E091A200F091A300309749F009951092D2
:1007B0009600109297001092980010929900FF9165
:1007C000EF91BF91AF919F918F917F916F915F91C9
:1007D0004F913F912F910F900FBE0F901F90189542
:1007E0001F920F920FB60F9211242F933F934F93A6
:1007F0005F936F937F938F939F93AF93BF93EF9389
:10080000FF93E091AC00F091AD00309709F00995AD
:10081000FF91EF91BF91AF919F918F917F916F91D8
:100820005F914F913F912F910F900FBE0F901F90AE
:1008300018951F920F920FB60F9211242F933F938A
:100840004F935F936F937F938F939F93AF93BF93D8
:10085000EF93FF938091920090919300A091940068
:10086000B09195000196A11DB11D809392009093C7
:100870009300A0939400B09395002091BA0030911A
:10088000BB004091BC005091BD0082179307A407A4
:10089000B50779F4E091A800F091A900309749F0EC
:1008A0000995109292001092930010929400109269
:1008B0009500FF91EF91BF91AF919F918F917F91A3
:1008C0006F915F914F913F912F910F900FBE0F90BD
:1008D0001F9018951F920F920FB60F9211242F930D
:1008E0003F934F935F936F937F938F939F93AF93B8
:1008F000BF93EF93FF9380918E0090918F00A09112
:100900009000B09191000196A11DB11D80938E00C1
:1009100090938F00A0939000B09391002091AE002F
:100920003091AF004091B0005091B1008217930711
:10093000A407B50779F4E091AA00F091AB003097D5
:1009400049F0099510928E0010928F00109290003D
:1009500010929100FF91EF91BF91AF919F918F9174
:100960007F916F915F914F913F912F910F900FBEAB
:100970000F901F9018951F920F920FB60F9211248F
:100980002F933F934F935F936F937F938F939F9397
:10099000AF93BF93EF93FF9380918A0090918B0068
:1009A000A0918C00B0918D000196A11DB11D809386
:1009B0008A0090938B00A0938C00B0938D002091BF
:1009C000BA003091BB004091BC005091BD0082172D
:1009D0009307A407B50779F4E091A600F091A7006A
:1009E000309749F0099510928A0010928B0010926E
:1009F0008C0010928D00FF91EF91BF91AF919F916C
:100A00008F917F916F915F914F913F912F910F90B7
:100A10000FBE0F901F9018951F920F920FB60F9256
:100A200011242F933F934F935F936F937F938F93F3
:100A30009F93AF93BF93EF93FF9380918600909124
:100A40008700A0918800B09189000196A11DB11D79
:100A50008093860090938700A0938800B0938900CC
:100A60002091B6003091B7004091B8005091B90084
:100A700082179307A407B50779F4E091A000F091DD
:100A8000A100309749F009951092860010928700D6
:100A90001092880010928900FF91EF91BF91AF9161
:100AA0009F918F917F916F915F914F913F912F9186
:100AB0000F900FBE0F901F9018951F920F920FB6B8
:100AC0000F9211242F933F934F935F936F937F93D4
:100AD0008F939F93AF93BF93EF93FF938091820087
:100AE00090918300A0918400B09185000196A11D92
:100AF000B11D8093820090938300A0938400B093F3
:100B000085002091B6003091B7004091B800509117
:100B1000B90082179307A407B50779F4E0919E0006
:100B2000F0919F00309749F0099510928200109241
:100B300083001092840010928500FF91EF91BF9185
:100B4000AF919F918F917F916F915F914F913F9165
:100B50002F910F900FBE0F901F9018958FB7806840
:100B60008FBF08958FB78F778FBF089585B7826045
:100B700085BF85B7816085BF8BB780648BBF0895C3
:100B80004130B1F5813099F0813030F08230D1F0D0
:100B9000833009F067C021C02AB381E090E002C031
:100BA000880F991F6A95E2F7282B2ABB089527B36F
:100BB00081E090E002C0880F991F6A95E2F7282B28
:100BC00027BB089524B381E090E002C0880F991FED
:100BD0006A95E2F7282B24BB089521B381E090E0C9
:100BE00002C0880F991F6A95E2F7282B21BB089550
:100BF0004423C1F5813099F0813028F08230D9F05A
:100C0000833081F524C02AB381E090E002C0880FD0
:100C1000991F6A95E2F7809582238ABB089527B3CE
:100C200081E090E002C0880F991F6A95E2F78095F5
:100C3000822387BB089524B381E090E002C0880F2F
:100C4000991F6A95E2F78095822384BB089521B3AA
:100C500081E090E002C0880F991F6A95E2F78095C5
:100C6000822381BB08954130B1F5813099F0813004
:100C700030F08230D1F0833009F067C021C02BB34F
:100C800081E090E002C0880F991F6A95E2F7282B57
:100C90002BBB089528B381E090E002C0880F991F14
:100CA0006A95E2F7282B28BB089525B381E090E0F0
:100CB00002C0880F991F6A95E2F7282B25BB08957B
:100CC00022B381E090E002C0880F991F6A95E2F795
:100CD000282B22BB08954423C1F5813099F081303F
:100CE00028F08230D9F0833081F524C02BB381E025
:100CF00090E002C0880F991F6A95E2F780958223E1
:100D00008BBB089528B381E090E002C0880F991F43
:100D10006A95E2F78095822388BB089525B381E028
:100D200090E002C0880F991F6A95E2F780958223B0
:100D300085BB089522B381E090E002C0880F991F1F
:100D40006A95E2F78095822382BB0895813051F045
:100D5000813030F0823041F08330C1F080E008957E
:100D600029B303C026B301C023B381E090E0062E6F
:100D700002C0880F991F0A94E2F730E08223932380
:100D800002C0959587956A95E2F7089520B381E0B2
:100D900090E0062E02C0880F991F0A94E2F730E017
:100DA0008223932302C0959587956A95E2F708956B
:100DB000813049F0813028F0823039F0833041F4BD
:100DC00006C06ABB089567BB089564BB089561BB04
:100DD0000895813049F0813028F0823039F0833035
:100DE00041F406C06BBB089568BB089565BB0895C8
:100DF00062BB0895813051F0813030F0823041F093
:100E0000833041F080E0089589B3089586B3089552
:100E100083B3089580B30895813091F0813028F034
:100E20008230C9F0833061F521C02BB381E090E0BE
:100E300002C0880F991F6A95E2F728272BBB0895F7
:100E400028B381E090E002C0880F991F6A95E2F70D
:100E5000282728BB089525B381E090E002C0880FC1
:100E6000991F6A95E2F7282725BB089522B381E0F0
:100E700090E002C0880F991F6A95E2F7282722BBED
:100E800008956F70813071F0813028F0823089F0E0
:100E90008330E1F415C08AB3807F8ABB8AB3682BA4
:100EA0006ABB089587B3807F87BB87B3682B67BB16
:100EB000089584B3807F84BB84B3682B64BB08959A
:100EC00081B3807F81BB81B3682B61BB08956F7054
:100ED000813071F0813028F0823089F08330E1F484
:100EE00015C08BB3807F8BBB8BB3682B6BBB089516
:100EF00088B3807F88BB88B3682B68BB089585B3AF
:100F0000807F85BB85B3682B65BB089582B3807FE6
:100F100082BB82B3682B62BB08956295607F81308B
:100F200071F0813028F0823089F08330E1F415C00F
:100F30008AB38F708ABB8AB3682B6ABB089587B364
:100F40008F7087BB87B3682B67BB089584B38F709E
:100F500084BB84B3682B64BB089581B38F7081BB5D
:100F600081B3682B61BB08956295607F813071F019
:100F7000813028F0823089F08330E1F415C08BB3E2
:100F80008F708BBB8BB3682B6BBB089588B38F704E
:100F900088BB88B3682B68BB089585B38F7085BB09
:100FA00085B3682B65BB089582B38F7082BB82B313
:100FB000682B62BB0895379A3F983E9A3D9886B158
:100FC000887F866086B93598339A089597B187707F
:100FD000907E892B87B9369A089524B135B1C9011D
:100FE0000895349902C010926000809160000895C5
:100FF00081E08093600008959093BF008093BE00CD
:1010000008951F920F920FB60F9211242F933F93C2
:101010004F935F936F937F938F939F93AF93BF9300
:10102000EF93FF93E091BE00F091BF00309709F07D
:10103000099510926000FF91EF91BF91AF919F9140
:101040008F917F916F915F914F913F912F910F9071
:101050000FBE0F901F901895813021F460E00E9420
:10106000E9060895823021F481E060E00E94E906FB
:101070000895813059F46A30A8F4E62FF0E0EF5972
:10108000FF4F82E060810E94E9060895823051F4AA
:101090006A3040F4E62FF0E0EF59FF4F81E06081C5
:1010A0000E94E9060895813029F482E06FEF0E94E2
:1010B000D8060895823021F481E06FEF0E94D806AF
:1010C00008950F931F9382E062E041E00E9433068F
:1010D00000ED17E0C8010197F1F782E062E040E01F
:1010E0000E943306C8010197F1F71F910F910895EF
:1010F0001F93182F82E060E040E00E94330682E0F8
:1011000061E040E00E94330680E0612F0E94E90622
:101110000E9461081F910895813019F4862F805430
:1011200002C0862F80580E947808089584E10E94AA
:101130007808089580E10E947808089581E00E946F
:10114000780808951F93182F8830B9F480E10E9421
:10115000780882E060E041E00E94330682E061E0CE
:1011600040E00E94330680E068E00E94E9060E94A9
:10117000610880E10E94780810C082E060E041E0F0
:101180000E94330682E061E040E00E94330680E086
:10119000612F0E94E9060E9461081F91089588301E
:1011A00010F40E94A20808950F931F93CF93DF932A
:1011B0008B01880F880F880F805C0E947808C0E040
:1011C000D0E0F801EC0FFD1F80810E94A20821965B
:1011D000C830D105B1F780E80E947808DF91CF913F
:1011E0001F910F910895AF92BF92CF92DF92EF922D
:1011F000FF920F931F93DF93CF93CDB7DEB72A975C
:101200000FB6F894DEBF0FBECDBF7B018C0197FFF8
:1012100016C010950095F094E094E11CF11C011D9E
:10122000111D8DE20E94A2085E010894A11CB11C50
:101230008AE0F50111928A95E9F765011EC06115F2
:1012400071058105910581F780E3ECCFC801B701F5
:101250002AE030E040E050E00E94220AF60161936B
:101260006F01C801B7012AE030E040E050E00E9481
:10127000220AC901DA017C018D018C2D8A19E11441
:10128000F1040105110511F7F82EFA948F2D992715
:1012900087FD90958E010F5F1F4F080F191F08C023
:1012A000F8018081805D0E94A208FA9401501040EC
:1012B000F7FEF6CF2A960FB6F894DEBF0FBECDBF6D
:1012C000CF91DF911F910F91FF90EF90DF90CF9022
:1012D000BF90AF900895CF93DF93EC0103C00E94BD
:1012E000A208219688818823D1F7DF91CF910895B4
:1012F0000F931F9380E06FEF0E94D80682E060E0BA
:1013000041E00E94C00582E061E041E00E94C0052A
:1013100082E062E041E00E94C00588E30E94780814
:1013200000ED17E0C8010197F1F78EE00E94780800
:10133000C8010197F1F781E00E94780880E797E102
:101340000197F1F786E00E947808C8010197F1F74C
:101350001F910F9108956F927F928F929F92BF92EB
:10136000CF92DF92EF92FF920F931F93DF93CF9371
:10137000CDB7DEB760970FB6F894DEBF0FBECDBF16
:10138000DE011196EBE6F0E080E101900D928150D4
:10139000E1F7CC24CA9400E010E03E010894611CFF
:1013A000711C90E2892E9EE4992EB02E82E0602F6F
:1013B00040E00E9433067301E00EF11E84E0D82E57
:1013C00082E06D2D0E94A606882311F4F701C080EB
:1013D00082E06D2D0E94A6068823D1F3C4010197F7
:1013E000F1F7D39484E090E0E80EF91E98E0D91666
:1013F00039F782E06B2D41E00E9433060F5F1F4FEB
:101400000430110591F68C2D60960FB6F894DEBF6E
:101410000FBECDBFCF91DF911F910F91FF90EF9045
:10142000DF90CF90BF909F908F907F906F900895A6
:1014300082E06FE00E94D80682E06FEF0E94E9062A
:101440000895FFCF97FB092E05260ED057FD04D037
:1014500014D00AD0001C38F4509540953095219551
:101460003F4F4F4F5F4F0895F6F7909580957095D9
:1014700061957F4F8F4F9F4F0895A1E21A2EAA1BAF
:10148000BB1BFD010DC0AA1FBB1FEE1FFF1FA21734
:10149000B307E407F50720F0A21BB30BE40BF50B31
:1014A000661F771F881F991F1A9469F760957095BA
:1014B000809590959B01AC01BD01CF010895F894F2
:0214C000FFCF5C
:1014C20001C0F9A4B0999282F880900104070A023F
:0C14D2000508000306090B0C0D0E0F00AE
:00000001FF
